:100000000C945D000C9485000C9485000C94850084
:100010000C9485000C9485000C9485000C9485004C
:100020000C9485000C9485000C9485000C9485003C
:100030000C9485000C9485000C9485000C9485002C
:100040000C9430030C9485000C94A0030C947A0358
:100050000C9485000C9485000C9485000C9485000C
:100060000C9485000C94850000000008000201003B
:100070000003040700000000000000000000000072
:10008000250028002B0000000000240027002A0083
:10009000040404040404040402020202020203032E
:1000A0000303030301020408102040800102040836
:1000B0001020010204081020A00511241FBECFEF5C
:1000C000D8E0DEBFCDBF11E0A0E0B1E0E8EFFBE09B
:1000D00002C005900D92A631B107D9F721E0A6E143
:1000E000B1E001C01D92A23DB207E1F710E0CDE5FD
:1000F000D0E004C02197FE010E94EF05CC35D10766
:10010000C9F70E94D2030C94FA050C94000090E009
:10011000FC01EC55FF4F2491FC01E057FF4F849107
:10012000882399F090E0880F991FFC01EA57FF4F50
:10013000A591B491FC01E458FF4F859194918FB73C
:10014000F894EC91E22BEC938FBF089590E0FC01C2
:10015000E859FF4F2491FC01EC55FF4F3491FC010D
:10016000E057FF4FE491EE2309F43CC0222339F11C
:10017000233091F038F42130A9F0223001F584B514
:100180008F7D12C0273091F02830A1F02430B9F4CF
:10019000809180008F7D03C0809180008F77809355
:1001A00080000DC084B58F7784BD09C08091B000F8
:1001B0008F7703C08091B0008F7D8093B000F0E016
:1001C000EE0FFF1FE458FF4FA591B4919FB7F8942D
:1001D000611104C08C913095382302C0EC913E2B04
:1001E0003C939FBF08951F93CF93DF93182FEB018C
:1001F0000E948700209711F460E004C0CF3FD10532
:1002000039F461E0812FDF91CF911F910C94A6000A
:10021000E12FF0E0E859FF4FE491E330F9F048F4C2
:10022000E130B9F0E230A1F584B5806284BDC8BD8B
:1002300034C0E730E9F0E83019F1E43049F5809155
:100240008000806280938000D0938B00C0938A00EE
:1002500024C084B5806884BDC7BD1FC08091800064
:10026000806880938000D0938900C093880015C077
:100270008091B00080688093B000C093B3000DC03F
:100280008091B00080628093B000C093B40005C03C
:10029000C038D1050CF0B5CFAFCFDF91CF911F9112
:1002A00008958E3008F08E508770806480937C00B3
:1002B00080917A00806480937A0080917A0086FD34
:1002C000FCCF809178002091790090E0922B0895E6
:1002D0003FB7F8948091310190913201A0913301A0
:1002E000B091340126B5A89B05C02F3F19F00196A7
:1002F000A11DB11D3FBFBA2FA92F982F8827820FAC
:10030000911DA11DB11DBC01CD0142E0660F771FFB
:10031000881F991F4A95D1F70895CF92DF92EF92E7
:10032000FF920F931F93CF93DF936C017A018B01A0
:10033000C0E0D0E0CE15DF0581F0D8016D918D01D0
:10034000D601ED91FC910190F081E02DC601099557
:10035000892B11F02196EECF7E01C701DF91CF915D
:100360001F910F91FF90EF90DF90CF900895089527
:1003700080E090E00895FC01538D448D252F30E0FE
:10038000842F90E0821B930B541710F0CF960895A2
:1003900001970895FC01918D828D981761F0828DEF
:1003A000DF01A80FB11D5D968C91928D9F5F9F73A9
:1003B000928F90E008958FEF9FEF0895FC01918D4B
:1003C000828D981731F0828DE80FF11D858D90E0B8
:1003D00008958FEF9FEF0895FC01918D228D892F55
:1003E00090E0805C9F4F821B91098F73992708953D
:1003F00085E391E00E94EC0121E0892B09F420E0E3
:10040000822F0895FC01848DDF01A80FB11DA35A2E
:10041000BF4F2C91848D90E001968F739927848F24
:10042000A689B7892C93A089B1898C918370806447
:100430008C93938D848D981306C00288F389E02DE8
:1004400080818F7D80830895EF92FF920F931F9399
:10045000CF93DF93EC0181E0888F9B8D8C8D981377
:1004600005C0E889F989808185FD26C0F62E0B8DAF
:1004700010E00F5F1F4F0F731127E02E8C8DE812D5
:100480000CC00FB607FCFACFE889F989808185FF97
:10049000F5CFCE010E940202F1CF8B8DFE01E80F55
:1004A000F11DE35AFF4FF0829FB7F8940B8FEA8952
:1004B000FB89808180620AC09FB7F894EE89FF892A
:1004C0006083E889F98980818370806480839FBF1D
:1004D00081E090E0DF91CF911F910F91FF90EF901D
:1004E0000895CF93DF93EC01888D8823C9F0EA89C2
:1004F000FB89808185FD05C0A889B9898C9186FD1D
:100500000FC00FB607FCF5CF808185FFF2CFA88919
:10051000B9898C9185FFEDCFCE010E940202E7CF11
:10052000DF91CF91089580E090E0892B29F00E941F
:10053000F80181110C94000008950F931F93CF933D
:10054000DF93EC018B0177FF0DC060E088E00E9433
:10055000A60061E089E00E94A60066277727601B5D
:10056000710B09C061E088E00E94A60060E089E0AC
:100570000E94A600B8018AE00E94F300D7FF0DC0D8
:1005800060E08CE00E94A60061E08DE00E94A60081
:10059000662777276C1B7D0B09C061E08CE00E9409
:1005A000A60060E08DE00E94A600BE018BE0DF9116
:1005B000CF911F910F910C94F3008F929F92AF9265
:1005C000BF920F931F93CF93DF93CDB7DEB7A19761
:1005D0000FB6F894DEBF0FBECDBF19A2423008F4AB
:1005E0004AE08E010F5D1F4F842E912CA12CB12C5F
:1005F000A50194010E94CD05E62FB901CA01015061
:100600001109EA3014F4E05D01C0E95CD801EC9313
:10061000232B242B252B61F70115110571F0F8010F
:1006200001900020E9F73197AF01401B510BB80151
:1006300085E391E00E948D0102C080E090E0A196E8
:100640000FB6F894DEBF0FBECDBFDF91CF911F91E3
:100650000F91BF90AF909F908F9008950E94F505E5
:100660001F920F920FB60F9211242F933F938F93E7
:100670009F93AF93BF9380912D0190912E01A091F4
:100680002F01B091300130912C0123E0230F2D3741
:1006900020F40196A11DB11D05C026E8230F029686
:1006A000A11DB11D20932C0180932D0190932E014B
:1006B000A0932F01B09330018091310190913201CC
:1006C000A0913301B09134010196A11DB11D809319
:1006D000310190933201A0933301B0933401BF9163
:1006E000AF919F918F913F912F910F900FBE0F90DF
:1006F0001F9018951F920F920FB60F9211242F93EF
:100700003F934F935F936F937F938F939F93AF9399
:10071000BF93EF93FF9385E391E00E940202FF9164
:10072000EF91BF91AF919F918F917F916F915F9169
:100730004F913F912F910F900FBE0F901F901895E2
:100740001F920F920FB60F9211242F938F939F93A6
:10075000EF93FF93E0914501F09146018081E09194
:100760004B01F0914C0182FD12C0908180914E01AD
:100770008F5F8F7320914F01821751F0E0914E01EE
:10078000F0E0EB5CFE4F958F80934E0101C08081BD
:10079000FF91EF919F918F912F910F900FBE0F902E
:1007A0001F901895789484B5826084BD84B581606B
:1007B00084BD85B5826085BD85B5816085BD80912C
:1007C0006E00816080936E001092810080918100A4
:1007D000826080938100809181008160809381009C
:1007E000809180008160809380008091B10084605E
:1007F0008093B1008091B00081608093B0008091BF
:100800007A00846080937A0080917A00826080937D
:100810007A0080917A00816080937A0080917A00DA
:10082000806880937A001092C1008CE00E9487005B
:100830008DE00E94870088E00E94870089E00E9486
:1008400087000E9468014B015C0138EEC32E33E043
:10085000D32EE12CF12C0E946801DC01CB01881918
:100860009909AA09BB09883E9340A105B10598F3EF
:1008700021E0C21AD108E108F10888EE880E83E071
:10088000981EA11CB11CC114D104E104F10419F794
:1008900006E111E0C0E08C2F0E945101F801819324
:1008A00091938F01CF5FC530B1F7E0914501F09191
:1008B000460182E08083E0914101F0914201108283
:1008C000E0914301F09144018FEC808310924D013F
:1008D000E0914901F0914A0186E08083E09147016F
:1008E000F0914801808180618083E0914701F0911F
:1008F0004801808188608083E0914701F091480140
:10090000808180688083E0914701F0914801808177
:100910008F7D8083C1E0D0E08EE00E9451015C01B8
:1009200090932901809328018FE00E9451018C014E
:10093000909327018093260180E10E9451016C0170
:10094000909325018093240181E10E9451017C0153
:10095000909323018093220182E10E945101209112
:10096000160130911701285C3109A216B3062CF448
:10097000D0932901C093280104C01092290110923C
:1009800028012091180130911901285C31090217C2
:1009900013072CF4D0932701C093260104C01092B2
:1009A00027011092260120911A0130911B01285C29
:1009B0003109C216D3062CF4D0932501C09324012B
:1009C00004C0109225011092240120911C01309145
:1009D0001D01285C3109E216F3062CF4D0932301A3
:1009E000C093220104C01092230110922201209191
:1009F0001E0130911F01285C3109821793072CF4E6
:100A0000D0932101C093200104C0109221011092C3
:100A10002001C0902201D0902301CC0CDD1C8091DC
:100A2000200190912101C80ED91E209124013091FE
:100A3000250195E0220F331F9A95E1F74091260199
:100A400050912701249FC001259F900D349F900D48
:100A50001124C80ED91E809128019091290124E00B
:100A6000880F991F2A95E1F7C80ED91ED0922B0145
:100A7000C0922A010D2C000CEE08FF08F7FE0EC0F4
:100A80006DE285E391E00E94240266277727CB017F
:100A90006C197D098E099F094AE003C04AE0C7012D
:100AA000B6010E94DD0242E050E062E171E085E3C0
:100AB00091E00E948D0180912A0190912B01843058
:100AC000910519F466E970E00DC09C012B7F283078
:100AD000310519F468E770E005C08831910529F403
:100AE00060E070E086E990E026C08031910529F051
:100AF000AC014D7F4C31510519F46AE67FEFF2CF1E
:100B00002230310529F466E970E088E790E013C0EF
:100B10008330910529F466E970E080E090E00BC035
:100B20009C01277F2730310511F0019731F466E9E8
:100B300070E08AE69FEF0E949D020E949302ECCE35
:100B4000E5E3F1E01382128288EE93E0A0E0B0E0EA
:100B500084839583A683B78384E091E09183808327
:100B600085EC90E09587848784EC90E09787868772
:100B700080EC90E0918B808B81EC90E0938B828B6A
:100B800082EC90E0958B848B86EC90E0978B868B43
:100B9000118E128E138E148E0895A1E21A2EAA1BA6
:100BA000BB1BFD010DC0AA1FBB1FEE1FFF1FA2171D
:100BB000B307E407F50720F0A21BB30BE40BF50B1A
:100BC000661F771F881F991F1A9469F760957095A3
:100BD000809590959B01AC01BD01CF010895EE0F6A
:100BE000FF1F0590F491E02D099481E090E0F894C6
:080BF0000C94FA05F894FFCF04
:100BF8000000000024028D01BB017102EC01CA0152
:060C0800DE010D0A0000F0
:107E0000112484B714BE81FFF0D085E080938100F7
:107E100082E08093C00088E18093C10086E0809377
:107E2000C20080E18093C4008EE0C9D0259A86E02C
:107E300020E33CEF91E0309385002093840096BBD3
:107E4000B09BFECF1D9AA8958150A9F7CC24DD24C4
:107E500088248394B5E0AB2EA1E19A2EF3E0BF2EE7
:107E6000A2D0813461F49FD0082FAFD0023811F036
:107E7000013811F484E001C083E08DD089C08234E0
:107E800011F484E103C0853419F485E0A6D080C0E4
:107E9000853579F488D0E82EFF2485D0082F10E0AE
:107EA000102F00270E291F29000F111F8ED06801E7
:107EB0006FC0863521F484E090D080E0DECF843638
:107EC00009F040C070D06FD0082F6DD080E0C81688
:107ED00080E7D80618F4F601B7BEE895C0E0D1E017
:107EE00062D089930C17E1F7F0E0CF16F0E7DF06D8
:107EF00018F0F601B7BEE89568D007B600FCFDCFD4
:107F0000A601A0E0B1E02C9130E011968C91119780
:107F100090E0982F8827822B932B1296FA010C0160
:107F200087BEE89511244E5F5F4FF1E0A038BF0790
:107F300051F7F601A7BEE89507B600FCFDCF97BE46
:107F4000E89526C08437B1F42ED02DD0F82E2BD052
:107F50003CD0F601EF2C8F010F5F1F4F84911BD097
:107F6000EA94F801C1F70894C11CD11CFA94CF0C13
:107F7000D11C0EC0853739F428D08EE10CD085E9AC
:107F80000AD08FE07ACF813511F488E018D01DD067
:107F900080E101D065CF982F8091C00085FFFCCF94
:107FA0009093C60008958091C00087FFFCCF809118
:107FB000C00084FD01C0A8958091C6000895E0E648
:107FC000F0E098E1908380830895EDDF803219F02E
:107FD00088E0F5DFFFCF84E1DECF1F93182FE3DFCA
:107FE0001150E9F7F2DF1F91089580E0E8DFEE27F6
:047FF000FF270994CA
:027FFE00040479
:0400000300007E007B
:00000001FF
